{
  "contractName": "ImageRegister",
  "abi": [
    {
      "constant": true,
      "inputs": [
        {
          "name": "",
          "type": "address"
        },
        {
          "name": "",
          "type": "uint256"
        }
      ],
      "name": "ownerToImages",
      "outputs": [
        {
          "name": "ipfsHash",
          "type": "string"
        },
        {
          "name": "title",
          "type": "string"
        },
        {
          "name": "description",
          "type": "string"
        },
        {
          "name": "tags",
          "type": "string"
        },
        {
          "name": "uploadedOn",
          "type": "uint256"
        },
        {
          "name": "updatedOn",
          "type": "uint256"
        },
        {
          "name": "clearedOn",
          "type": "uint256"
        }
      ],
      "payable": false,
      "stateMutability": "view",
      "type": "function"
    },
    {
      "constant": false,
      "inputs": [],
      "name": "renounceOwnership",
      "outputs": [],
      "payable": false,
      "stateMutability": "nonpayable",
      "type": "function"
    },
    {
      "constant": false,
      "inputs": [],
      "name": "destroy",
      "outputs": [],
      "payable": false,
      "stateMutability": "nonpayable",
      "type": "function"
    },
    {
      "constant": true,
      "inputs": [],
      "name": "owner",
      "outputs": [
        {
          "name": "",
          "type": "address"
        }
      ],
      "payable": false,
      "stateMutability": "view",
      "type": "function"
    },
    {
      "constant": false,
      "inputs": [
        {
          "name": "_newOwner",
          "type": "address"
        }
      ],
      "name": "transferOwnership",
      "outputs": [],
      "payable": false,
      "stateMutability": "nonpayable",
      "type": "function"
    },
    {
      "constant": false,
      "inputs": [
        {
          "name": "_recipient",
          "type": "address"
        }
      ],
      "name": "destroyAndSend",
      "outputs": [],
      "payable": false,
      "stateMutability": "nonpayable",
      "type": "function"
    },
    {
      "anonymous": false,
      "inputs": [
        {
          "indexed": true,
          "name": "_owner",
          "type": "address"
        },
        {
          "indexed": false,
          "name": "_ipfsHash",
          "type": "string"
        },
        {
          "indexed": false,
          "name": "_title",
          "type": "string"
        },
        {
          "indexed": false,
          "name": "_description",
          "type": "string"
        },
        {
          "indexed": false,
          "name": "_tags",
          "type": "string"
        },
        {
          "indexed": false,
          "name": "_uploadedOn",
          "type": "uint256"
        }
      ],
      "name": "ImageUploaded",
      "type": "event"
    },
    {
      "anonymous": false,
      "inputs": [
        {
          "indexed": true,
          "name": "_owner",
          "type": "address"
        },
        {
          "indexed": false,
          "name": "_index",
          "type": "uint256"
        },
        {
          "indexed": false,
          "name": "_ipfsHash",
          "type": "string"
        },
        {
          "indexed": false,
          "name": "_title",
          "type": "string"
        },
        {
          "indexed": false,
          "name": "_description",
          "type": "string"
        },
        {
          "indexed": false,
          "name": "_tags",
          "type": "string"
        },
        {
          "indexed": false,
          "name": "_updatedOn",
          "type": "uint256"
        }
      ],
      "name": "ImageUpdated",
      "type": "event"
    },
    {
      "anonymous": false,
      "inputs": [
        {
          "indexed": true,
          "name": "_owner",
          "type": "address"
        },
        {
          "indexed": false,
          "name": "_index",
          "type": "uint256"
        },
        {
          "indexed": false,
          "name": "_ipfsHash",
          "type": "string"
        },
        {
          "indexed": false,
          "name": "_clearedOn",
          "type": "uint256"
        }
      ],
      "name": "ImageCleared",
      "type": "event"
    },
    {
      "anonymous": false,
      "inputs": [
        {
          "indexed": true,
          "name": "previousOwner",
          "type": "address"
        }
      ],
      "name": "OwnershipRenounced",
      "type": "event"
    },
    {
      "anonymous": false,
      "inputs": [
        {
          "indexed": true,
          "name": "previousOwner",
          "type": "address"
        },
        {
          "indexed": true,
          "name": "newOwner",
          "type": "address"
        }
      ],
      "name": "OwnershipTransferred",
      "type": "event"
    },
    {
      "constant": false,
      "inputs": [
        {
          "name": "_ipfsHash",
          "type": "string"
        },
        {
          "name": "_title",
          "type": "string"
        },
        {
          "name": "_description",
          "type": "string"
        },
        {
          "name": "_tags",
          "type": "string"
        }
      ],
      "name": "uploadImage",
      "outputs": [
        {
          "name": "_success",
          "type": "bool"
        }
      ],
      "payable": false,
      "stateMutability": "nonpayable",
      "type": "function"
    },
    {
      "constant": true,
      "inputs": [
        {
          "name": "_owner",
          "type": "address"
        }
      ],
      "name": "getImageCount",
      "outputs": [
        {
          "name": "",
          "type": "uint256"
        }
      ],
      "payable": false,
      "stateMutability": "view",
      "type": "function"
    },
    {
      "constant": true,
      "inputs": [
        {
          "name": "_owner",
          "type": "address"
        },
        {
          "name": "_index",
          "type": "uint8"
        }
      ],
      "name": "getImage",
      "outputs": [
        {
          "name": "_ipfsHash",
          "type": "string"
        },
        {
          "name": "_title",
          "type": "string"
        },
        {
          "name": "_description",
          "type": "string"
        },
        {
          "name": "_tags",
          "type": "string"
        },
        {
          "name": "_uploadedOn",
          "type": "uint256"
        },
        {
          "name": "_updatedOn",
          "type": "uint256"
        },
        {
          "name": "_clearedOn",
          "type": "uint256"
        }
      ],
      "payable": false,
      "stateMutability": "view",
      "type": "function"
    }
  ],
  "bytecode": "0x6080604052336000806101000a81548173ffffffffffffffffffffffffffffffffffffffff021916908373ffffffffffffffffffffffffffffffffffffffff1602179055506115a9806100536000396000f300608060405260043610610099576000357c0100000000000000000000000000000000000000000000000000000000900463ffffffff168063361fad3b1461009e57806350e25c72146100f5578063715018a61461031457806383197ef01461032b5780638da5cb5b14610342578063ef9588c914610399578063f2fde38b146105bb578063f5074f41146105fe578063fdfc887314610641575b600080fd5b3480156100aa57600080fd5b506100df600480360381019080803573ffffffffffffffffffffffffffffffffffffffff169060200190929190505050610794565b6040518082815260200191505060405180910390f35b34801561010157600080fd5b50610140600480360381019080803573ffffffffffffffffffffffffffffffffffffffff169060200190929190803590602001909291905050506107e0565b604051808060200180602001806020018060200188815260200187815260200186815260200185810385528c818151815260200191508051906020019080838360005b8381101561019e578082015181840152602081019050610183565b50505050905090810190601f1680156101cb5780820380516001836020036101000a031916815260200191505b5085810384528b818151815260200191508051906020019080838360005b838110156102045780820151818401526020810190506101e9565b50505050905090810190601f1680156102315780820380516001836020036101000a031916815260200191505b5085810383528a818151815260200191508051906020019080838360005b8381101561026a57808201518184015260208101905061024f565b50505050905090810190601f1680156102975780820380516001836020036101000a031916815260200191505b50858103825289818151815260200191508051906020019080838360005b838110156102d05780820151818401526020810190506102b5565b50505050905090810190601f1680156102fd5780820380516001836020036101000a031916815260200191505b509b50505050505050505050505060405180910390f35b34801561032057600080fd5b50610329610a9e565b005b34801561033757600080fd5b50610340610ba0565b005b34801561034e57600080fd5b50610357610c35565b604051808273ffffffffffffffffffffffffffffffffffffffff1673ffffffffffffffffffffffffffffffffffffffff16815260200191505060405180910390f35b3480156103a557600080fd5b506103e7600480360381019080803573ffffffffffffffffffffffffffffffffffffffff169060200190929190803560ff169060200190929190505050610c5a565b604051808060200180602001806020018060200188815260200187815260200186815260200185810385528c818151815260200191508051906020019080838360005b8381101561044557808201518184015260208101905061042a565b50505050905090810190601f1680156104725780820380516001836020036101000a031916815260200191505b5085810384528b818151815260200191508051906020019080838360005b838110156104ab578082015181840152602081019050610490565b50505050905090810190601f1680156104d85780820380516001836020036101000a031916815260200191505b5085810383528a818151815260200191508051906020019080838360005b838110156105115780820151818401526020810190506104f6565b50505050905090810190601f16801561053e5780820380516001836020036101000a031916815260200191505b50858103825289818151815260200191508051906020019080838360005b8381101561057757808201518184015260208101905061055c565b50505050905090810190601f1680156105a45780820380516001836020036101000a031916815260200191505b509b50505050505050505050505060405180910390f35b3480156105c757600080fd5b506105fc600480360381019080803573ffffffffffffffffffffffffffffffffffffffff169060200190929190505050610f6f565b005b34801561060a57600080fd5b5061063f600480360381019080803573ffffffffffffffffffffffffffffffffffffffff169060200190929190505050610fd6565b005b34801561064d57600080fd5b5061077a600480360381019080803590602001908201803590602001908080601f0160208091040260200160405190810160405280939291908181526020018383808284378201915050505050509192919290803590602001908201803590602001908080601f0160208091040260200160405190810160405280939291908181526020018383808284378201915050505050509192919290803590602001908201803590602001908080601f0160208091040260200160405190810160405280939291908181526020018383808284378201915050505050509192919290803590602001908201803590602001908080601f016020809104026020016040519081016040528093929190818152602001838380828437820191505050505050919291929050505061104a565b604051808215151515815260200191505060405180910390f35b6000600160008373ffffffffffffffffffffffffffffffffffffffff1673ffffffffffffffffffffffffffffffffffffffff168152602001908152602001600020805490509050919050565b6001602052816000526040600020818154811015156107fb57fe5b906000526020600020906007020160009150915050806000018054600181600116156101000203166002900480601f0160208091040260200160405190810160405280929190818152602001828054600181600116156101000203166002900480156108a85780601f1061087d576101008083540402835291602001916108a8565b820191906000526020600020905b81548152906001019060200180831161088b57829003601f168201915b505050505090806001018054600181600116156101000203166002900480601f0160208091040260200160405190810160405280929190818152602001828054600181600116156101000203166002900480156109465780601f1061091b57610100808354040283529160200191610946565b820191906000526020600020905b81548152906001019060200180831161092957829003601f168201915b505050505090806002018054600181600116156101000203166002900480601f0160208091040260200160405190810160405280929190818152602001828054600181600116156101000203166002900480156109e45780601f106109b9576101008083540402835291602001916109e4565b820191906000526020600020905b8154815290600101906020018083116109c757829003601f168201915b505050505090806003018054600181600116156101000203166002900480601f016020809104026020016040519081016040528092919081815260200182805460018160011615610100020316600290048015610a825780601f10610a5757610100808354040283529160200191610a82565b820191906000526020600020905b815481529060010190602001808311610a6557829003601f168201915b5050505050908060040154908060050154908060060154905087565b6000809054906101000a900473ffffffffffffffffffffffffffffffffffffffff1673ffffffffffffffffffffffffffffffffffffffff163373ffffffffffffffffffffffffffffffffffffffff16141515610af957600080fd5b6000809054906101000a900473ffffffffffffffffffffffffffffffffffffffff1673ffffffffffffffffffffffffffffffffffffffff167ff8df31144d9c2f0f6b59d69b8b98abd5459d07f2742c4df920b25aae33c6482060405160405180910390a260008060006101000a81548173ffffffffffffffffffffffffffffffffffffffff021916908373ffffffffffffffffffffffffffffffffffffffff160217905550565b6000809054906101000a900473ffffffffffffffffffffffffffffffffffffffff1673ffffffffffffffffffffffffffffffffffffffff163373ffffffffffffffffffffffffffffffffffffffff16141515610bfb57600080fd5b6000809054906101000a900473ffffffffffffffffffffffffffffffffffffffff1673ffffffffffffffffffffffffffffffffffffffff16ff5b6000809054906101000a900473ffffffffffffffffffffffffffffffffffffffff1681565b606080606080600080600080600160008b73ffffffffffffffffffffffffffffffffffffffff1673ffffffffffffffffffffffffffffffffffffffff1681526020019081526020016000208960ff16815481101515610cb557fe5b9060005260206000209060070201905080600001816001018260020183600301846004015485600501548660060154868054600181600116156101000203166002900480601f016020809104026020016040519081016040528092919081815260200182805460018160011615610100020316600290048015610d795780601f10610d4e57610100808354040283529160200191610d79565b820191906000526020600020905b815481529060010190602001808311610d5c57829003601f168201915b50505050509650858054600181600116156101000203166002900480601f016020809104026020016040519081016040528092919081815260200182805460018160011615610100020316600290048015610e155780601f10610dea57610100808354040283529160200191610e15565b820191906000526020600020905b815481529060010190602001808311610df857829003601f168201915b50505050509550848054600181600116156101000203166002900480601f016020809104026020016040519081016040528092919081815260200182805460018160011615610100020316600290048015610eb15780601f10610e8657610100808354040283529160200191610eb1565b820191906000526020600020905b815481529060010190602001808311610e9457829003601f168201915b50505050509450838054600181600116156101000203166002900480601f016020809104026020016040519081016040528092919081815260200182805460018160011615610100020316600290048015610f4d5780601f10610f2257610100808354040283529160200191610f4d565b820191906000526020600020905b815481529060010190602001808311610f3057829003601f168201915b5050505050935097509750975097509750975097505092959891949750929550565b6000809054906101000a900473ffffffffffffffffffffffffffffffffffffffff1673ffffffffffffffffffffffffffffffffffffffff163373ffffffffffffffffffffffffffffffffffffffff16141515610fca57600080fd5b610fd3816113a0565b50565b6000809054906101000a900473ffffffffffffffffffffffffffffffffffffffff1673ffffffffffffffffffffffffffffffffffffffff163373ffffffffffffffffffffffffffffffffffffffff1614151561103157600080fd5b8073ffffffffffffffffffffffffffffffffffffffff16ff5b60008061105561149a565b42915060e0604051908101604052808881526020018781526020018681526020018581526020018381526020016000815260200160008152509050600160003373ffffffffffffffffffffffffffffffffffffffff1673ffffffffffffffffffffffffffffffffffffffff168152602001908152602001600020819080600181540180825580915050906001820390600052602060002090600702016000909192909190915060008201518160000190805190602001906111179291906114d8565b5060208201518160010190805190602001906111349291906114d8565b5060408201518160020190805190602001906111519291906114d8565b50606082015181600301908051906020019061116e9291906114d8565b506080820151816004015560a0820151816005015560c082015181600601555050503373ffffffffffffffffffffffffffffffffffffffff167fc4952e066d5c784f77cbcbcef80e58937e0abfc3ced94ab945dd2d6ea73d99008888888887604051808060200180602001806020018060200186815260200185810385528a818151815260200191508051906020019080838360005b8381101561121f578082015181840152602081019050611204565b50505050905090810190601f16801561124c5780820380516001836020036101000a031916815260200191505b50858103845289818151815260200191508051906020019080838360005b8381101561128557808201518184015260208101905061126a565b50505050905090810190601f1680156112b25780820380516001836020036101000a031916815260200191505b50858103835288818151815260200191508051906020019080838360005b838110156112eb5780820151818401526020810190506112d0565b50505050905090810190601f1680156113185780820380516001836020036101000a031916815260200191505b50858103825287818151815260200191508051906020019080838360005b83811015611351578082015181840152602081019050611336565b50505050905090810190601f16801561137e5780820380516001836020036101000a031916815260200191505b50995050505050505050505060405180910390a2600192505050949350505050565b600073ffffffffffffffffffffffffffffffffffffffff168173ffffffffffffffffffffffffffffffffffffffff16141515156113dc57600080fd5b8073ffffffffffffffffffffffffffffffffffffffff166000809054906101000a900473ffffffffffffffffffffffffffffffffffffffff1673ffffffffffffffffffffffffffffffffffffffff167f8be0079c531659141344cd1fd0a4f28419497f9722a3daafe3b4186f6b6457e060405160405180910390a3806000806101000a81548173ffffffffffffffffffffffffffffffffffffffff021916908373ffffffffffffffffffffffffffffffffffffffff16021790555050565b60e060405190810160405280606081526020016060815260200160608152602001606081526020016000815260200160008152602001600081525090565b828054600181600116156101000203166002900490600052602060002090601f016020900481019282601f1061151957805160ff1916838001178555611547565b82800160010185558215611547579182015b8281111561154657825182559160200191906001019061152b565b5b5090506115549190611558565b5090565b61157a91905b8082111561157657600081600090555060010161155e565b5090565b905600a165627a7a72305820a7dfa5620227757e6450c99c155838545575d5cd0269560f930c5610d135e1ff0029",
  "source": "pragma solidity ^0.4.24;\n\n// Base contract that can be destroyed by owner. \nimport \"openzeppelin-solidity/contracts/lifecycle/Destructible.sol\";\n\n/** \n * @title ImageRegister\n * @author Irvin M. Waldman (@irvinwaldman)\n * @notice This contract represents a registry of image ownership. \n * Due to storage limitations, mages are stored on IPFS.  \n * The IPFS hash along with metadata are stored onchain.\n */\ncontract ImageRegister is Destructible {\n\n  /** \n   * @title Represents a single image which is owned by someone. \n   */\n  struct Image {\n    string ipfsHash;\n    string title;\n    string description;\n    string tags;\n    uint256 uploadedOn;\n    uint256 updatedOn;\n    uint256 clearedOn;\n  }\n\n  // Maps owner to their images\n  mapping (address => Image[]) public ownerToImages;\n\n  /**\n   * @dev Indicates that a user has uploaded a new image\n   * @param _owner The owner of the image\n   * @param _ipfsHash The IPFS hash\n   * @param _title The image title\n   * @param _description The image description\n   * @param _tags The image tags\n   * @param _uploadedOn The upload timestamp\n   */\n  event ImageUploaded(\n    address indexed _owner, \n    string _ipfsHash, \n    string _title, \n    string _description, \n    string _tags,\n    uint256 _uploadedOn\n  );\n\n  /**\n   * @dev Indicates that a user has updated an existing image metadata\n   * @param _owner The owner of the image\n   * @param _index The index of the image in then ownership map\n   * @param _ipfsHash The IPFS hash\n   * @param _title The image title\n   * @param _description The image description\n   * @param _tags The image tags\n   * @param _updatedOn The last update timestamp\n   */\n  event ImageUpdated(\n    address indexed _owner, \n    uint256 _index, \n    string _ipfsHash, \n    string _title, \n    string _description, \n    string _tags,\n    uint256 _updatedOn\n  );\n\n  /**\n   * @dev Indicates that a user has cleared an existing image\n   * @param _owner The owner of the image\n   * @param _index The index of the image in the ownership map\n   * @param _clearedOn The cleared timestampe\n   */\n  event ImageCleared(\n    address indexed _owner, \n    uint256 _index,\n    string _ipfsHash,\n    uint256 _clearedOn\n  );\n\n   /** \n    * @notice associate an image entry with the sender address\n    * @param _ipfsHash The IPFS hash\n    * @param _title The image title\n    * @param _description The image description\n    * @param _tags The image tag(s)\n    */\n  function uploadImage(\n    string _ipfsHash, \n    string _title, \n    string _description, \n    string _tags\n    ) public returns (bool _success) {\n\n    uint256 uploadedOn = now;\n    Image memory image = Image(\n      _ipfsHash,\n      _title,\n      _description,\n      _tags,\n      uploadedOn,\n      0,\n      0\n    );\n\n    ownerToImages[msg.sender].push(image);\n\n    emit ImageUploaded(\n      msg.sender,\n      _ipfsHash,\n      _title,\n      _description,\n      _tags,\n      uploadedOn\n    );\n\n    _success = true;\n  }\n\n  /** \n   * @notice returns the number of images associated with the given address\n   * @param _owner owner address\n   * @return number of images associated with a given address\n   */\n  function getImageCount(address _owner) public view returns (uint256) {\n    return ownerToImages[_owner].length;\n  }\n\n  /** \n   * @notice returns the image at index in the ownership arrap\n   * @param _owner owner address\n   * @param _index next image to return\n   * @return _ipfsHash IPFS hash\n   * @return _title image title\n   * @return _description image description\n   * @return _tags image tags\n   * @return _uploadedOn The uploaded timestamp\n   * @return _updatedOn The updated timestamp\n   * @return _clearedOn The cleared timestamp\n   */ \n  function getImage(address _owner, uint8 _index) public view returns (\n    string _ipfsHash, \n    string _title, \n    string _description, \n    string _tags,\n    uint256 _uploadedOn,\n    uint256 _updatedOn,\n    uint256 _clearedOn\n    ) {\n    Image storage image = ownerToImages[_owner][_index];\n    return (\n      image.ipfsHash, \n      image.title, \n      image.description, \n      image.tags, \n      image.uploadedOn,\n      image.updatedOn,\n      image.clearedOn\n    );\n  }\n}",
  "sourcePath": "/Users/irvin/dev/ipfs-image-dapp/contracts/ImageRegister.sol",
  "compiler": {
    "name": "solc",
    "version": "0.4.24+commit.e67f0147.Emscripten.clang"
  },
  "schemaVersion": "2.0.0",
  "updatedAt": "2018-06-22T19:38:38.450Z"
}